{
  "contractName": "Dex",
  "abi": [
    {
      "anonymous": false,
      "inputs": [
        {
          "indexed": true,
          "internalType": "address",
          "name": "previousOwner",
          "type": "address"
        },
        {
          "indexed": true,
          "internalType": "address",
          "name": "newOwner",
          "type": "address"
        }
      ],
      "name": "OwnershipTransferred",
      "type": "event"
    },
    {
      "inputs": [
        {
          "internalType": "bytes32",
          "name": "ticker",
          "type": "bytes32"
        },
        {
          "internalType": "address",
          "name": "tokenAddress",
          "type": "address"
        }
      ],
      "name": "addToken",
      "outputs": [],
      "stateMutability": "nonpayable",
      "type": "function"
    },
    {
      "inputs": [
        {
          "internalType": "address",
          "name": "",
          "type": "address"
        },
        {
          "internalType": "bytes32",
          "name": "",
          "type": "bytes32"
        }
      ],
      "name": "balances",
      "outputs": [
        {
          "internalType": "uint256",
          "name": "",
          "type": "uint256"
        }
      ],
      "stateMutability": "view",
      "type": "function",
      "constant": true
    },
    {
      "inputs": [
        {
          "internalType": "uint256",
          "name": "amount",
          "type": "uint256"
        },
        {
          "internalType": "bytes32",
          "name": "ticker",
          "type": "bytes32"
        }
      ],
      "name": "deposit",
      "outputs": [],
      "stateMutability": "nonpayable",
      "type": "function"
    },
    {
      "inputs": [
        {
          "internalType": "bytes32",
          "name": "",
          "type": "bytes32"
        },
        {
          "internalType": "uint256",
          "name": "",
          "type": "uint256"
        },
        {
          "internalType": "uint256",
          "name": "",
          "type": "uint256"
        }
      ],
      "name": "orderBook",
      "outputs": [
        {
          "internalType": "uint256",
          "name": "id",
          "type": "uint256"
        },
        {
          "internalType": "address",
          "name": "trader",
          "type": "address"
        },
        {
          "internalType": "enum Dex.Side",
          "name": "side",
          "type": "uint8"
        },
        {
          "internalType": "bytes32",
          "name": "ticker",
          "type": "bytes32"
        },
        {
          "internalType": "uint256",
          "name": "amount",
          "type": "uint256"
        },
        {
          "internalType": "uint256",
          "name": "price",
          "type": "uint256"
        }
      ],
      "stateMutability": "view",
      "type": "function",
      "constant": true
    },
    {
      "inputs": [],
      "name": "owner",
      "outputs": [
        {
          "internalType": "address",
          "name": "",
          "type": "address"
        }
      ],
      "stateMutability": "view",
      "type": "function",
      "constant": true
    },
    {
      "inputs": [],
      "name": "renounceOwnership",
      "outputs": [],
      "stateMutability": "nonpayable",
      "type": "function"
    },
    {
      "inputs": [
        {
          "internalType": "uint256",
          "name": "",
          "type": "uint256"
        }
      ],
      "name": "tokenList",
      "outputs": [
        {
          "internalType": "bytes32",
          "name": "",
          "type": "bytes32"
        }
      ],
      "stateMutability": "view",
      "type": "function",
      "constant": true
    },
    {
      "inputs": [
        {
          "internalType": "bytes32",
          "name": "",
          "type": "bytes32"
        }
      ],
      "name": "tokenMapping",
      "outputs": [
        {
          "internalType": "bytes32",
          "name": "ticker",
          "type": "bytes32"
        },
        {
          "internalType": "address",
          "name": "tokenAddress",
          "type": "address"
        }
      ],
      "stateMutability": "view",
      "type": "function",
      "constant": true
    },
    {
      "inputs": [
        {
          "internalType": "address",
          "name": "newOwner",
          "type": "address"
        }
      ],
      "name": "transferOwnership",
      "outputs": [],
      "stateMutability": "nonpayable",
      "type": "function"
    },
    {
      "inputs": [
        {
          "internalType": "uint256",
          "name": "amount",
          "type": "uint256"
        },
        {
          "internalType": "bytes32",
          "name": "ticker",
          "type": "bytes32"
        }
      ],
      "name": "withdraw",
      "outputs": [],
      "stateMutability": "nonpayable",
      "type": "function"
    },
    {
      "inputs": [
        {
          "internalType": "bytes32",
          "name": "ticker",
          "type": "bytes32"
        },
        {
          "internalType": "enum Dex.Side",
          "name": "side",
          "type": "uint8"
        }
      ],
      "name": "getOrderBook",
      "outputs": [
        {
          "components": [
            {
              "internalType": "uint256",
              "name": "id",
              "type": "uint256"
            },
            {
              "internalType": "address",
              "name": "trader",
              "type": "address"
            },
            {
              "internalType": "enum Dex.Side",
              "name": "side",
              "type": "uint8"
            },
            {
              "internalType": "bytes32",
              "name": "ticker",
              "type": "bytes32"
            },
            {
              "internalType": "uint256",
              "name": "amount",
              "type": "uint256"
            },
            {
              "internalType": "uint256",
              "name": "price",
              "type": "uint256"
            }
          ],
          "internalType": "struct Dex.Order[]",
          "name": "",
          "type": "tuple[]"
        }
      ],
      "stateMutability": "view",
      "type": "function",
      "constant": true
    }
  ],
  "bytecode": "0x608060405234801561001057600080fd5b5061002d61002261003260201b60201c565b61003a60201b60201c565b6100fe565b600033905090565b60008060009054906101000a900473ffffffffffffffffffffffffffffffffffffffff169050816000806101000a81548173ffffffffffffffffffffffffffffffffffffffff021916908373ffffffffffffffffffffffffffffffffffffffff1602179055508173ffffffffffffffffffffffffffffffffffffffff168173ffffffffffffffffffffffffffffffffffffffff167f8be0079c531659141344cd1fd0a4f28419497f9722a3daafe3b4186f6b6457e060405160405180910390a35050565b6115b98061010d6000396000f3fe608060405234801561001057600080fd5b50600436106100a95760003560e01c80639776aacf116100715780639776aacf1461016c5780639ead722214610188578063a8d2021a146101b8578063ba58ea68146101d4578063c9630cb014610204578063f2fde38b14610220576100a9565b80630bb431b6146100ae5780631f14df69146100e3578063667cb4ba14610113578063715018a6146101445780638da5cb5b1461014e575b600080fd5b6100c860048036038101906100c39190610cdc565b61023c565b6040516100da96959493929190610e05565b60405180910390f35b6100fd60048036038101906100f89190610e92565b6102cf565b60405161010a9190610ed2565b60405180910390f35b61012d60048036038101906101289190610eed565b6102f4565b60405161013b929190610f1a565b60405180910390f35b61014c610338565b005b61015661034c565b6040516101639190610f43565b60405180910390f35b61018660048036038101906101819190610f5e565b610375565b005b6101a2600480360381019061019d9190610f9e565b61043c565b6040516101af9190610fcb565b60405180910390f35b6101d260048036038101906101cd9190610fe6565b610460565b005b6101ee60048036038101906101e9919061104b565b61070a565b6040516101fb91906111f1565b60405180910390f35b61021e60048036038101906102199190610fe6565b610859565b005b61023a60048036038101906102359190611213565b610a72565b005b6004602052826000526040600020602052816000526040600020818154811061026457600080fd5b906000526020600020906005020160009250925050508060000154908060010160009054906101000a900473ffffffffffffffffffffffffffffffffffffffff16908060010160149054906101000a900460ff16908060020154908060030154908060040154905086565b6003602052816000526040600020602052806000526040600020600091509150505481565b60016020528060005260406000206000915090508060000154908060010160009054906101000a900473ffffffffffffffffffffffffffffffffffffffff16905082565b610340610af5565b61034a6000610b73565b565b60008060009054906101000a900473ffffffffffffffffffffffffffffffffffffffff16905090565b61037d610af5565b60405180604001604052808381526020018273ffffffffffffffffffffffffffffffffffffffff16815250600160008481526020019081526020016000206000820151816000015560208201518160010160006101000a81548173ffffffffffffffffffffffffffffffffffffffff021916908373ffffffffffffffffffffffffffffffffffffffff16021790555090505060028290806001815401808255809150506001900390600052602060002001600090919091909150555050565b6002818154811061044c57600080fd5b906000526020600020016000915090505481565b80600073ffffffffffffffffffffffffffffffffffffffff166001600083815260200190815260200160002060010160009054906101000a900473ffffffffffffffffffffffffffffffffffffffff1673ffffffffffffffffffffffffffffffffffffffff1603610506576040517f08c379a00000000000000000000000000000000000000000000000000000000081526004016104fd9061129d565b60405180910390fd5b82600360003373ffffffffffffffffffffffffffffffffffffffff1673ffffffffffffffffffffffffffffffffffffffff1681526020019081526020016000206000848152602001908152602001600020541015610599576040517f08c379a000000000000000000000000000000000000000000000000000000000815260040161059090611309565b60405180910390fd5b6105fc83600360003373ffffffffffffffffffffffffffffffffffffffff1673ffffffffffffffffffffffffffffffffffffffff168152602001908152602001600020600085815260200190815260200160002054610c3790919063ffffffff16565b600360003373ffffffffffffffffffffffffffffffffffffffff1673ffffffffffffffffffffffffffffffffffffffff1681526020019081526020016000206000848152602001908152602001600020819055506001600083815260200190815260200160002060010160009054906101000a900473ffffffffffffffffffffffffffffffffffffffff1673ffffffffffffffffffffffffffffffffffffffff1663a9059cbb33856040518363ffffffff1660e01b81526004016106c1929190611329565b6020604051808303816000875af11580156106e0573d6000803e3d6000fd5b505050506040513d601f19601f82011682018060405250810190610704919061138a565b50505050565b606060046000848152602001908152602001600020600083600181111561073457610733610d7f565b5b8152602001908152602001600020805480602002602001604051908101604052809291908181526020016000905b8282101561084d57838290600052602060002090600502016040518060c0016040529081600082015481526020016001820160009054906101000a900473ffffffffffffffffffffffffffffffffffffffff1673ffffffffffffffffffffffffffffffffffffffff1673ffffffffffffffffffffffffffffffffffffffff1681526020016001820160149054906101000a900460ff16600181111561080a57610809610d7f565b5b600181111561081c5761081b610d7f565b5b8152602001600282015481526020016003820154815260200160048201548152505081526020019060010190610762565b50505050905092915050565b80600073ffffffffffffffffffffffffffffffffffffffff166001600083815260200190815260200160002060010160009054906101000a900473ffffffffffffffffffffffffffffffffffffffff1673ffffffffffffffffffffffffffffffffffffffff16036108ff576040517f08c379a00000000000000000000000000000000000000000000000000000000081526004016108f69061129d565b60405180910390fd5b6001600083815260200190815260200160002060010160009054906101000a900473ffffffffffffffffffffffffffffffffffffffff1673ffffffffffffffffffffffffffffffffffffffff166323b872dd3330866040518463ffffffff1660e01b8152600401610972939291906113b7565b6020604051808303816000875af1158015610991573d6000803e3d6000fd5b505050506040513d601f19601f820116820180604052508101906109b5919061138a565b50610a1983600360003373ffffffffffffffffffffffffffffffffffffffff1673ffffffffffffffffffffffffffffffffffffffff168152602001908152602001600020600085815260200190815260200160002054610c4d90919063ffffffff16565b600360003373ffffffffffffffffffffffffffffffffffffffff1673ffffffffffffffffffffffffffffffffffffffff168152602001908152602001600020600084815260200190815260200160002081905550505050565b610a7a610af5565b600073ffffffffffffffffffffffffffffffffffffffff168173ffffffffffffffffffffffffffffffffffffffff1603610ae9576040517f08c379a0000000000000000000000000000000000000000000000000000000008152600401610ae090611460565b60405180910390fd5b610af281610b73565b50565b610afd610c63565b73ffffffffffffffffffffffffffffffffffffffff16610b1b61034c565b73ffffffffffffffffffffffffffffffffffffffff1614610b71576040517f08c379a0000000000000000000000000000000000000000000000000000000008152600401610b68906114cc565b60405180910390fd5b565b60008060009054906101000a900473ffffffffffffffffffffffffffffffffffffffff169050816000806101000a81548173ffffffffffffffffffffffffffffffffffffffff021916908373ffffffffffffffffffffffffffffffffffffffff1602179055508173ffffffffffffffffffffffffffffffffffffffff168173ffffffffffffffffffffffffffffffffffffffff167f8be0079c531659141344cd1fd0a4f28419497f9722a3daafe3b4186f6b6457e060405160405180910390a35050565b60008183610c45919061151b565b905092915050565b60008183610c5b919061154f565b905092915050565b600033905090565b600080fd5b6000819050919050565b610c8381610c70565b8114610c8e57600080fd5b50565b600081359050610ca081610c7a565b92915050565b6000819050919050565b610cb981610ca6565b8114610cc457600080fd5b50565b600081359050610cd681610cb0565b92915050565b600080600060608486031215610cf557610cf4610c6b565b5b6000610d0386828701610c91565b9350506020610d1486828701610cc7565b9250506040610d2586828701610cc7565b9150509250925092565b610d3881610ca6565b82525050565b600073ffffffffffffffffffffffffffffffffffffffff82169050919050565b6000610d6982610d3e565b9050919050565b610d7981610d5e565b82525050565b7f4e487b7100000000000000000000000000000000000000000000000000000000600052602160045260246000fd5b60028110610dbf57610dbe610d7f565b5b50565b6000819050610dd082610dae565b919050565b6000610de082610dc2565b9050919050565b610df081610dd5565b82525050565b610dff81610c70565b82525050565b600060c082019050610e1a6000830189610d2f565b610e276020830188610d70565b610e346040830187610de7565b610e416060830186610df6565b610e4e6080830185610d2f565b610e5b60a0830184610d2f565b979650505050505050565b610e6f81610d5e565b8114610e7a57600080fd5b50565b600081359050610e8c81610e66565b92915050565b60008060408385031215610ea957610ea8610c6b565b5b6000610eb785828601610e7d565b9250506020610ec885828601610c91565b9150509250929050565b6000602082019050610ee76000830184610d2f565b92915050565b600060208284031215610f0357610f02610c6b565b5b6000610f1184828501610c91565b91505092915050565b6000604082019050610f2f6000830185610df6565b610f3c6020830184610d70565b9392505050565b6000602082019050610f586000830184610d70565b92915050565b60008060408385031215610f7557610f74610c6b565b5b6000610f8385828601610c91565b9250506020610f9485828601610e7d565b9150509250929050565b600060208284031215610fb457610fb3610c6b565b5b6000610fc284828501610cc7565b91505092915050565b6000602082019050610fe06000830184610df6565b92915050565b60008060408385031215610ffd57610ffc610c6b565b5b600061100b85828601610cc7565b925050602061101c85828601610c91565b9150509250929050565b6002811061103357600080fd5b50565b60008135905061104581611026565b92915050565b6000806040838503121561106257611061610c6b565b5b600061107085828601610c91565b925050602061108185828601611036565b9150509250929050565b600081519050919050565b600082825260208201905092915050565b6000819050602082019050919050565b6110c081610ca6565b82525050565b6110cf81610d5e565b82525050565b6110de81610dd5565b82525050565b6110ed81610c70565b82525050565b60c08201600082015161110960008501826110b7565b50602082015161111c60208501826110c6565b50604082015161112f60408501826110d5565b50606082015161114260608501826110e4565b50608082015161115560808501826110b7565b5060a082015161116860a08501826110b7565b50505050565b600061117a83836110f3565b60c08301905092915050565b6000602082019050919050565b600061119e8261108b565b6111a88185611096565b93506111b3836110a7565b8060005b838110156111e45781516111cb888261116e565b97506111d683611186565b9250506001810190506111b7565b5085935050505092915050565b6000602082019050818103600083015261120b8184611193565b905092915050565b60006020828403121561122957611228610c6b565b5b600061123784828501610e7d565b91505092915050565b600082825260208201905092915050565b7f546f6b656e20446f6573204e6f74204578697374210000000000000000000000600082015250565b6000611287601583611240565b915061129282611251565b602082019050919050565b600060208201905081810360008301526112b68161127a565b9050919050565b7f496e73756666696369656e742042616c616e6365000000000000000000000000600082015250565b60006112f3601483611240565b91506112fe826112bd565b602082019050919050565b60006020820190508181036000830152611322816112e6565b9050919050565b600060408201905061133e6000830185610d70565b61134b6020830184610d2f565b9392505050565b60008115159050919050565b61136781611352565b811461137257600080fd5b50565b6000815190506113848161135e565b92915050565b6000602082840312156113a05761139f610c6b565b5b60006113ae84828501611375565b91505092915050565b60006060820190506113cc6000830186610d70565b6113d96020830185610d70565b6113e66040830184610d2f565b949350505050565b7f4f776e61626c653a206e6577206f776e657220697320746865207a65726f206160008201527f6464726573730000000000000000000000000000000000000000000000000000602082015250565b600061144a602683611240565b9150611455826113ee565b604082019050919050565b600060208201905081810360008301526114798161143d565b9050919050565b7f4f776e61626c653a2063616c6c6572206973206e6f7420746865206f776e6572600082015250565b60006114b6602083611240565b91506114c182611480565b602082019050919050565b600060208201905081810360008301526114e5816114a9565b9050919050565b7f4e487b7100000000000000000000000000000000000000000000000000000000600052601160045260246000fd5b600061152682610ca6565b915061153183610ca6565b9250828203905081811115611549576115486114ec565b5b92915050565b600061155a82610ca6565b915061156583610ca6565b925082820190508082111561157d5761157c6114ec565b5b9291505056fea2646970667358221220553b4467484a85975855b612a90c3ae6ce5157a41dbf16958c65aecf6a450d2e64736f6c63430008110033",
  "immutableReferences": {},
  "source": "//SPDX-License-Identifier: MIT\r\npragma solidity 0.8.17;\r\npragma experimental ABIEncoderV2;\r\n\r\nimport \"./wallet.sol\";\r\n\r\n//Dex inherect from Wallet since there's alot of similarity between so can recycle some function\r\ncontract Dex is Wallet{\r\n\r\n    enum Side{\r\n        BUY,\r\n        SELL\r\n    }\r\n\r\n    struct Order{\r\n        uint id;\r\n        address trader;\r\n        Side side;\r\n        bytes32 ticker;\r\n        uint amount;\r\n        uint price;\r\n    }\r\n\r\n    //1 order book for buy, 1 order book for sell.  use mapping to store\r\n    //the 1st mapping points to asset, 2nd mapping points to the action taken and in order book\r\n    mapping(bytes32 => mapping(uint => Order[])) public orderBook;\r\n\r\n    function getOrderBook(bytes32 ticker, Side side) view public returns(Order[] memory){\r\n        return orderBook[ticker][uint(side)];\r\n    }\r\n\r\n    /*\r\n    function createLimitOrder(){\r\n\r\n    }\r\n    */\r\n}",
  "sourcePath": "C:\\Users\\tombf\\Desktop\\Moralis\\Smart Contract 201\\dex\\contracts\\dex.sol",
  "compiler": {
    "name": "solc",
    "version": "0.8.17+commit.8df45f5f.Emscripten.clang"
  },
  "schemaVersion": "3.4.11",
  "updatedAt": "2023-01-25T11:57:30.721Z",
  "networkType": "ethereum",
  "devdoc": {
    "kind": "dev",
    "methods": {
      "owner()": {
        "details": "Returns the address of the current owner."
      },
      "renounceOwnership()": {
        "details": "Leaves the contract without owner. It will not be possible to call `onlyOwner` functions anymore. Can only be called by the current owner. NOTE: Renouncing ownership will leave the contract without an owner, thereby removing any functionality that is only available to the owner."
      },
      "transferOwnership(address)": {
        "details": "Transfers ownership of the contract to a new account (`newOwner`). Can only be called by the current owner."
      }
    },
    "version": 1
  },
  "userdoc": {
    "kind": "user",
    "methods": {},
    "version": 1
  }
}