{
  "contractName": "Wallet",
  "abi": [
    {
      "anonymous": false,
      "inputs": [
        {
          "indexed": true,
          "internalType": "address",
          "name": "previousOwner",
          "type": "address"
        },
        {
          "indexed": true,
          "internalType": "address",
          "name": "newOwner",
          "type": "address"
        }
      ],
      "name": "OwnershipTransferred",
      "type": "event"
    },
    {
      "inputs": [
        {
          "internalType": "address",
          "name": "",
          "type": "address"
        },
        {
          "internalType": "bytes32",
          "name": "",
          "type": "bytes32"
        }
      ],
      "name": "balances",
      "outputs": [
        {
          "internalType": "uint256",
          "name": "",
          "type": "uint256"
        }
      ],
      "stateMutability": "view",
      "type": "function",
      "constant": true
    },
    {
      "inputs": [],
      "name": "owner",
      "outputs": [
        {
          "internalType": "address",
          "name": "",
          "type": "address"
        }
      ],
      "stateMutability": "view",
      "type": "function",
      "constant": true
    },
    {
      "inputs": [],
      "name": "renounceOwnership",
      "outputs": [],
      "stateMutability": "nonpayable",
      "type": "function"
    },
    {
      "inputs": [
        {
          "internalType": "uint256",
          "name": "",
          "type": "uint256"
        }
      ],
      "name": "tokenList",
      "outputs": [
        {
          "internalType": "bytes32",
          "name": "",
          "type": "bytes32"
        }
      ],
      "stateMutability": "view",
      "type": "function",
      "constant": true
    },
    {
      "inputs": [
        {
          "internalType": "bytes32",
          "name": "",
          "type": "bytes32"
        }
      ],
      "name": "tokenMapping",
      "outputs": [
        {
          "internalType": "bytes32",
          "name": "ticker",
          "type": "bytes32"
        },
        {
          "internalType": "address",
          "name": "tokenAddress",
          "type": "address"
        }
      ],
      "stateMutability": "view",
      "type": "function",
      "constant": true
    },
    {
      "inputs": [
        {
          "internalType": "address",
          "name": "newOwner",
          "type": "address"
        }
      ],
      "name": "transferOwnership",
      "outputs": [],
      "stateMutability": "nonpayable",
      "type": "function"
    },
    {
      "inputs": [
        {
          "internalType": "bytes32",
          "name": "ticker",
          "type": "bytes32"
        },
        {
          "internalType": "address",
          "name": "tokenAddress",
          "type": "address"
        }
      ],
      "name": "addToken",
      "outputs": [],
      "stateMutability": "nonpayable",
      "type": "function"
    },
    {
      "inputs": [
        {
          "internalType": "uint256",
          "name": "amount",
          "type": "uint256"
        },
        {
          "internalType": "bytes32",
          "name": "ticker",
          "type": "bytes32"
        }
      ],
      "name": "deposit",
      "outputs": [],
      "stateMutability": "nonpayable",
      "type": "function"
    },
    {
      "inputs": [
        {
          "internalType": "uint256",
          "name": "amount",
          "type": "uint256"
        },
        {
          "internalType": "bytes32",
          "name": "ticker",
          "type": "bytes32"
        }
      ],
      "name": "withdraw",
      "outputs": [],
      "stateMutability": "nonpayable",
      "type": "function"
    }
  ],
  "bytecode": "0x608060405234801561001057600080fd5b5061002d61002261003260201b60201c565b61003a60201b60201c565b6100fe565b600033905090565b60008060009054906101000a900473ffffffffffffffffffffffffffffffffffffffff169050816000806101000a81548173ffffffffffffffffffffffffffffffffffffffff021916908373ffffffffffffffffffffffffffffffffffffffff1602179055508173ffffffffffffffffffffffffffffffffffffffff168173ffffffffffffffffffffffffffffffffffffffff167f8be0079c531659141344cd1fd0a4f28419497f9722a3daafe3b4186f6b6457e060405160405180910390a35050565b6110448061010d6000396000f3fe608060405234801561001057600080fd5b50600436106100935760003560e01c80639776aacf116100665780639776aacf146101215780639ead72221461013d578063a8d2021a1461016d578063c9630cb014610189578063f2fde38b146101a557610093565b80631f14df6914610098578063667cb4ba146100c8578063715018a6146100f95780638da5cb5b14610103575b600080fd5b6100b260048036038101906100ad9190610aa7565b6101c1565b6040516100bf9190610b00565b60405180910390f35b6100e260048036038101906100dd9190610b1b565b6101e6565b6040516100f0929190610b66565b60405180910390f35b61010161022a565b005b61010b61023e565b6040516101189190610b8f565b60405180910390f35b61013b60048036038101906101369190610baa565b610267565b005b61015760048036038101906101529190610c16565b61032e565b6040516101649190610c43565b60405180910390f35b61018760048036038101906101829190610c5e565b610352565b005b6101a3600480360381019061019e9190610c5e565b6105fc565b005b6101bf60048036038101906101ba9190610c9e565b610815565b005b6003602052816000526040600020602052806000526040600020600091509150505481565b60016020528060005260406000206000915090508060000154908060010160009054906101000a900473ffffffffffffffffffffffffffffffffffffffff16905082565b610232610898565b61023c6000610916565b565b60008060009054906101000a900473ffffffffffffffffffffffffffffffffffffffff16905090565b61026f610898565b60405180604001604052808381526020018273ffffffffffffffffffffffffffffffffffffffff16815250600160008481526020019081526020016000206000820151816000015560208201518160010160006101000a81548173ffffffffffffffffffffffffffffffffffffffff021916908373ffffffffffffffffffffffffffffffffffffffff16021790555090505060028290806001815401808255809150506001900390600052602060002001600090919091909150555050565b6002818154811061033e57600080fd5b906000526020600020016000915090505481565b80600073ffffffffffffffffffffffffffffffffffffffff166001600083815260200190815260200160002060010160009054906101000a900473ffffffffffffffffffffffffffffffffffffffff1673ffffffffffffffffffffffffffffffffffffffff16036103f8576040517f08c379a00000000000000000000000000000000000000000000000000000000081526004016103ef90610d28565b60405180910390fd5b82600360003373ffffffffffffffffffffffffffffffffffffffff1673ffffffffffffffffffffffffffffffffffffffff168152602001908152602001600020600084815260200190815260200160002054101561048b576040517f08c379a000000000000000000000000000000000000000000000000000000000815260040161048290610d94565b60405180910390fd5b6104ee83600360003373ffffffffffffffffffffffffffffffffffffffff1673ffffffffffffffffffffffffffffffffffffffff1681526020019081526020016000206000858152602001908152602001600020546109da90919063ffffffff16565b600360003373ffffffffffffffffffffffffffffffffffffffff1673ffffffffffffffffffffffffffffffffffffffff1681526020019081526020016000206000848152602001908152602001600020819055506001600083815260200190815260200160002060010160009054906101000a900473ffffffffffffffffffffffffffffffffffffffff1673ffffffffffffffffffffffffffffffffffffffff1663a9059cbb33856040518363ffffffff1660e01b81526004016105b3929190610db4565b6020604051808303816000875af11580156105d2573d6000803e3d6000fd5b505050506040513d601f19601f820116820180604052508101906105f69190610e15565b50505050565b80600073ffffffffffffffffffffffffffffffffffffffff166001600083815260200190815260200160002060010160009054906101000a900473ffffffffffffffffffffffffffffffffffffffff1673ffffffffffffffffffffffffffffffffffffffff16036106a2576040517f08c379a000000000000000000000000000000000000000000000000000000000815260040161069990610d28565b60405180910390fd5b6001600083815260200190815260200160002060010160009054906101000a900473ffffffffffffffffffffffffffffffffffffffff1673ffffffffffffffffffffffffffffffffffffffff166323b872dd3330866040518463ffffffff1660e01b815260040161071593929190610e42565b6020604051808303816000875af1158015610734573d6000803e3d6000fd5b505050506040513d601f19601f820116820180604052508101906107589190610e15565b506107bc83600360003373ffffffffffffffffffffffffffffffffffffffff1673ffffffffffffffffffffffffffffffffffffffff1681526020019081526020016000206000858152602001908152602001600020546109f090919063ffffffff16565b600360003373ffffffffffffffffffffffffffffffffffffffff1673ffffffffffffffffffffffffffffffffffffffff168152602001908152602001600020600084815260200190815260200160002081905550505050565b61081d610898565b600073ffffffffffffffffffffffffffffffffffffffff168173ffffffffffffffffffffffffffffffffffffffff160361088c576040517f08c379a000000000000000000000000000000000000000000000000000000000815260040161088390610eeb565b60405180910390fd5b61089581610916565b50565b6108a0610a06565b73ffffffffffffffffffffffffffffffffffffffff166108be61023e565b73ffffffffffffffffffffffffffffffffffffffff1614610914576040517f08c379a000000000000000000000000000000000000000000000000000000000815260040161090b90610f57565b60405180910390fd5b565b60008060009054906101000a900473ffffffffffffffffffffffffffffffffffffffff169050816000806101000a81548173ffffffffffffffffffffffffffffffffffffffff021916908373ffffffffffffffffffffffffffffffffffffffff1602179055508173ffffffffffffffffffffffffffffffffffffffff168173ffffffffffffffffffffffffffffffffffffffff167f8be0079c531659141344cd1fd0a4f28419497f9722a3daafe3b4186f6b6457e060405160405180910390a35050565b600081836109e89190610fa6565b905092915050565b600081836109fe9190610fda565b905092915050565b600033905090565b600080fd5b600073ffffffffffffffffffffffffffffffffffffffff82169050919050565b6000610a3e82610a13565b9050919050565b610a4e81610a33565b8114610a5957600080fd5b50565b600081359050610a6b81610a45565b92915050565b6000819050919050565b610a8481610a71565b8114610a8f57600080fd5b50565b600081359050610aa181610a7b565b92915050565b60008060408385031215610abe57610abd610a0e565b5b6000610acc85828601610a5c565b9250506020610add85828601610a92565b9150509250929050565b6000819050919050565b610afa81610ae7565b82525050565b6000602082019050610b156000830184610af1565b92915050565b600060208284031215610b3157610b30610a0e565b5b6000610b3f84828501610a92565b91505092915050565b610b5181610a71565b82525050565b610b6081610a33565b82525050565b6000604082019050610b7b6000830185610b48565b610b886020830184610b57565b9392505050565b6000602082019050610ba46000830184610b57565b92915050565b60008060408385031215610bc157610bc0610a0e565b5b6000610bcf85828601610a92565b9250506020610be085828601610a5c565b9150509250929050565b610bf381610ae7565b8114610bfe57600080fd5b50565b600081359050610c1081610bea565b92915050565b600060208284031215610c2c57610c2b610a0e565b5b6000610c3a84828501610c01565b91505092915050565b6000602082019050610c586000830184610b48565b92915050565b60008060408385031215610c7557610c74610a0e565b5b6000610c8385828601610c01565b9250506020610c9485828601610a92565b9150509250929050565b600060208284031215610cb457610cb3610a0e565b5b6000610cc284828501610a5c565b91505092915050565b600082825260208201905092915050565b7f546f6b656e20446f6573204e6f74204578697374210000000000000000000000600082015250565b6000610d12601583610ccb565b9150610d1d82610cdc565b602082019050919050565b60006020820190508181036000830152610d4181610d05565b9050919050565b7f496e73756666696369656e742042616c616e6365000000000000000000000000600082015250565b6000610d7e601483610ccb565b9150610d8982610d48565b602082019050919050565b60006020820190508181036000830152610dad81610d71565b9050919050565b6000604082019050610dc96000830185610b57565b610dd66020830184610af1565b9392505050565b60008115159050919050565b610df281610ddd565b8114610dfd57600080fd5b50565b600081519050610e0f81610de9565b92915050565b600060208284031215610e2b57610e2a610a0e565b5b6000610e3984828501610e00565b91505092915050565b6000606082019050610e576000830186610b57565b610e646020830185610b57565b610e716040830184610af1565b949350505050565b7f4f776e61626c653a206e6577206f776e657220697320746865207a65726f206160008201527f6464726573730000000000000000000000000000000000000000000000000000602082015250565b6000610ed5602683610ccb565b9150610ee082610e79565b604082019050919050565b60006020820190508181036000830152610f0481610ec8565b9050919050565b7f4f776e61626c653a2063616c6c6572206973206e6f7420746865206f776e6572600082015250565b6000610f41602083610ccb565b9150610f4c82610f0b565b602082019050919050565b60006020820190508181036000830152610f7081610f34565b9050919050565b7f4e487b7100000000000000000000000000000000000000000000000000000000600052601160045260246000fd5b6000610fb182610ae7565b9150610fbc83610ae7565b9250828203905081811115610fd457610fd3610f77565b5b92915050565b6000610fe582610ae7565b9150610ff083610ae7565b925082820190508082111561100857611007610f77565b5b9291505056fea2646970667358221220ef92c0d5f639d1aa27b60cba8b582a9f7c2d84fc61038ac9729229c0c2d45ecf64736f6c63430008110033",
  "immutableReferences": {},
  "source": "//SPDX-License-Identifier: MIT\r\npragma solidity 0.8.17;\r\n\r\nimport \"../node_modules/@openzeppelin/contracts/token/ERC20/IERC20.sol\";\r\nimport \"../node_modules/@openzeppelin/contracts/utils/math/SafeMath.sol\";\r\nimport \"../node_modules/@openzeppelin/contracts/access/Ownable.sol\";\r\n\r\ncontract Wallet is Ownable{\r\n    using SafeMath for uint256;\r\n\r\n    //struct for storing token ticker and address\r\n    struct Token{\r\n        bytes32 ticker;\r\n        address tokenAddress;\r\n    }\r\n\r\n    mapping(bytes32 => Token) public tokenMapping;\r\n    //array to store all token ticker\r\n    bytes32[] public tokenList;\r\n\r\n    //use double mapping to store balances of token\r\n    //second mapping on the right use to store token ticker, can use string or bytes32\r\n    //this mapping is used to store balances for all users\r\n    mapping(address => mapping(bytes32 => uint256)) public balances;\r\n\r\n    modifier tokenExist(bytes32 ticker){\r\n        //using require to check if ticker exist before proceeding with the deposit\r\n        //!= address(0), because is uninitialise token address (0x000000000000000), \r\n        require(tokenMapping[ticker].tokenAddress != address(0), \"Token Does Not Exist!\");\r\n        _;\r\n    }\r\n\r\n    //onlyOwner is from Ownable.sol library, signifying only owner of wallet can addToken\r\n    function addToken(bytes32 ticker, address tokenAddress) onlyOwner external{\r\n        tokenMapping[ticker] = Token(ticker, tokenAddress);\r\n        tokenList.push(ticker);\r\n    }\r\n\r\n    //tokenExist is a custom modifier used to check if a token exist\r\n    function deposit(uint amount, bytes32 ticker) tokenExist(ticker) external{\r\n        //transferFrom function is used to transfer from msg.sender to address(this)\r\n        IERC20(tokenMapping[ticker].tokenAddress).transferFrom(msg.sender, address(this), amount);\r\n\r\n        balances[msg.sender][ticker] = balances[msg.sender][ticker].add(amount);\r\n    }\r\n\r\n    function withdraw(uint amount, bytes32 ticker) tokenExist(ticker) external{        \r\n        //use require to make sure sender have enough amount of token to proceed withdraw\r\n        //if insufficient, throw error message.  else proceed to the next step\r\n        require(balances[msg.sender][ticker] >= amount, \"Insufficient Balance\");\r\n\r\n        //.sub() is a Safe Math funrtion from openzepplin library (SafeMath.sol)\r\n        //use to prevent possible overflow and underflow from occuring.\r\n        balances[msg.sender][ticker] = balances[msg.sender][ticker].sub(amount);\r\n        //transfer token from DEx to owner\r\n        IERC20(tokenMapping[ticker].tokenAddress).transfer(msg.sender, amount);\r\n    }\r\n}",
  "sourcePath": "C:\\Users\\tombf\\Desktop\\Moralis\\Smart Contract 201\\dex\\contracts\\wallet.sol",
  "compiler": {
    "name": "solc",
    "version": "0.8.17+commit.8df45f5f.Emscripten.clang"
  },
  "schemaVersion": "3.4.11",
  "updatedAt": "2023-01-24T09:03:45.676Z",
  "networkType": "ethereum",
  "devdoc": {
    "kind": "dev",
    "methods": {
      "owner()": {
        "details": "Returns the address of the current owner."
      },
      "renounceOwnership()": {
        "details": "Leaves the contract without owner. It will not be possible to call `onlyOwner` functions anymore. Can only be called by the current owner. NOTE: Renouncing ownership will leave the contract without an owner, thereby removing any functionality that is only available to the owner."
      },
      "transferOwnership(address)": {
        "details": "Transfers ownership of the contract to a new account (`newOwner`). Can only be called by the current owner."
      }
    },
    "version": 1
  },
  "userdoc": {
    "kind": "user",
    "methods": {},
    "version": 1
  }
}