{
  "contractName": "Wallet",
  "abi": [
    {
      "inputs": [
        {
          "internalType": "address",
          "name": "",
          "type": "address"
        },
        {
          "internalType": "bytes32",
          "name": "",
          "type": "bytes32"
        }
      ],
      "name": "balances",
      "outputs": [
        {
          "internalType": "uint256",
          "name": "",
          "type": "uint256"
        }
      ],
      "stateMutability": "view",
      "type": "function"
    },
    {
      "inputs": [
        {
          "internalType": "uint256",
          "name": "",
          "type": "uint256"
        }
      ],
      "name": "tokenList",
      "outputs": [
        {
          "internalType": "bytes32",
          "name": "",
          "type": "bytes32"
        }
      ],
      "stateMutability": "view",
      "type": "function"
    },
    {
      "inputs": [
        {
          "internalType": "bytes32",
          "name": "",
          "type": "bytes32"
        }
      ],
      "name": "tokenMapping",
      "outputs": [
        {
          "internalType": "bytes32",
          "name": "ticker",
          "type": "bytes32"
        },
        {
          "internalType": "address",
          "name": "tokenAddress",
          "type": "address"
        }
      ],
      "stateMutability": "view",
      "type": "function"
    },
    {
      "inputs": [
        {
          "internalType": "bytes32",
          "name": "ticker",
          "type": "bytes32"
        },
        {
          "internalType": "address",
          "name": "tokenAddress",
          "type": "address"
        }
      ],
      "name": "addToken",
      "outputs": [],
      "stateMutability": "nonpayable",
      "type": "function"
    },
    {
      "inputs": [
        {
          "internalType": "uint256",
          "name": "amount",
          "type": "uint256"
        },
        {
          "internalType": "bytes32",
          "name": "ticker",
          "type": "bytes32"
        }
      ],
      "name": "deposit",
      "outputs": [],
      "stateMutability": "nonpayable",
      "type": "function"
    },
    {
      "inputs": [
        {
          "internalType": "uint256",
          "name": "amount",
          "type": "uint256"
        },
        {
          "internalType": "bytes32",
          "name": "ticker",
          "type": "bytes32"
        }
      ],
      "name": "withdraw",
      "outputs": [],
      "stateMutability": "nonpayable",
      "type": "function"
    }
  ],
  "bytecode": "0x608060405234801561001057600080fd5b5061093a806100206000396000f3fe608060405234801561001057600080fd5b50600436106100625760003560e01c80631f14df6914610067578063667cb4ba146100975780639776aacf146100c85780639ead7222146100e4578063a8d2021a14610114578063c9630cb014610130575b600080fd5b610081600480360381019061007c91906105ba565b61014c565b60405161008e9190610613565b60405180910390f35b6100b160048036038101906100ac919061062e565b610171565b6040516100bf929190610679565b60405180910390f35b6100e260048036038101906100dd91906106a2565b6101b5565b005b6100fe60048036038101906100f9919061070e565b610273565b60405161010b919061073b565b60405180910390f35b61012e60048036038101906101299190610756565b610297565b005b61014a60048036038101906101459190610756565b610507565b005b6002602052816000526040600020602052806000526040600020600091509150505481565b60006020528060005260406000206000915090508060000154908060010160009054906101000a900473ffffffffffffffffffffffffffffffffffffffff16905082565b60405180604001604052808381526020018273ffffffffffffffffffffffffffffffffffffffff168152506000808481526020019081526020016000206000820151816000015560208201518160010160006101000a81548173ffffffffffffffffffffffffffffffffffffffff021916908373ffffffffffffffffffffffffffffffffffffffff16021790555090505060018290806001815401808255809150506001900390600052602060002001600090919091909150555050565b6001818154811061028357600080fd5b906000526020600020016000915090505481565b600073ffffffffffffffffffffffffffffffffffffffff1660008083815260200190815260200160002060010160009054906101000a900473ffffffffffffffffffffffffffffffffffffffff1673ffffffffffffffffffffffffffffffffffffffff160361030557600080fd5b81600260003373ffffffffffffffffffffffffffffffffffffffff1673ffffffffffffffffffffffffffffffffffffffff1681526020019081526020016000206000838152602001908152602001600020541015610398576040517f08c379a000000000000000000000000000000000000000000000000000000000815260040161038f906107f3565b60405180910390fd5b6103fb82600260003373ffffffffffffffffffffffffffffffffffffffff1673ffffffffffffffffffffffffffffffffffffffff16815260200190815260200160002060008481526020019081526020016000205461050b90919063ffffffff16565b600260003373ffffffffffffffffffffffffffffffffffffffff1673ffffffffffffffffffffffffffffffffffffffff16815260200190815260200160002060008381526020019081526020016000208190555060008082815260200190815260200160002060010160009054906101000a900473ffffffffffffffffffffffffffffffffffffffff1673ffffffffffffffffffffffffffffffffffffffff1663a9059cbb33846040518363ffffffff1660e01b81526004016104bf929190610813565b6020604051808303816000875af11580156104de573d6000803e3d6000fd5b505050506040513d601f19601f820116820180604052508101906105029190610874565b505050565b5050565b6000818361051991906108d0565b905092915050565b600080fd5b600073ffffffffffffffffffffffffffffffffffffffff82169050919050565b600061055182610526565b9050919050565b61056181610546565b811461056c57600080fd5b50565b60008135905061057e81610558565b92915050565b6000819050919050565b61059781610584565b81146105a257600080fd5b50565b6000813590506105b48161058e565b92915050565b600080604083850312156105d1576105d0610521565b5b60006105df8582860161056f565b92505060206105f0858286016105a5565b9150509250929050565b6000819050919050565b61060d816105fa565b82525050565b60006020820190506106286000830184610604565b92915050565b60006020828403121561064457610643610521565b5b6000610652848285016105a5565b91505092915050565b61066481610584565b82525050565b61067381610546565b82525050565b600060408201905061068e600083018561065b565b61069b602083018461066a565b9392505050565b600080604083850312156106b9576106b8610521565b5b60006106c7858286016105a5565b92505060206106d88582860161056f565b9150509250929050565b6106eb816105fa565b81146106f657600080fd5b50565b600081359050610708816106e2565b92915050565b60006020828403121561072457610723610521565b5b6000610732848285016106f9565b91505092915050565b6000602082019050610750600083018461065b565b92915050565b6000806040838503121561076d5761076c610521565b5b600061077b858286016106f9565b925050602061078c858286016105a5565b9150509250929050565b600082825260208201905092915050565b7f496e73756666696369656e742042616c616e6365000000000000000000000000600082015250565b60006107dd601483610796565b91506107e8826107a7565b602082019050919050565b6000602082019050818103600083015261080c816107d0565b9050919050565b6000604082019050610828600083018561066a565b6108356020830184610604565b9392505050565b60008115159050919050565b6108518161083c565b811461085c57600080fd5b50565b60008151905061086e81610848565b92915050565b60006020828403121561088a57610889610521565b5b60006108988482850161085f565b91505092915050565b7f4e487b7100000000000000000000000000000000000000000000000000000000600052601160045260246000fd5b60006108db826105fa565b91506108e6836105fa565b92508282039050818111156108fe576108fd6108a1565b5b9291505056fea2646970667358221220032106a4df5a3ee4204415fed8490fb67849292ffc5b2d3d7d686e8a2bcc584464736f6c63430008110033",
  "immutableReferences": {},
  "source": "//SPDX-License-Identifier: MIT\r\npragma solidity 0.8.17;\r\n\r\nimport \"../node_modules/@openzeppelin/contracts/token/ERC20/IERC20.sol\";\r\nimport \"../node_modules/@openzeppelin/contracts/utils/math/SafeMath.sol\";\r\n\r\ncontract Wallet{\r\n    using SafeMath for uint256;\r\n\r\n    //struct for storing token ticker and address\r\n    struct Token{\r\n        bytes32 ticker;\r\n        address tokenAddress;\r\n    }\r\n\r\n    mapping(bytes32 => Token) public tokenMapping;\r\n    //array to store all token ticker\r\n    bytes32[] public tokenList;\r\n\r\n    //use double mapping to store balances of token\r\n    //second mapping on the right use to store token ticker, can use string or bytes32\r\n    //this mapping is used to store balances for all users\r\n    mapping(address => mapping(bytes32 => uint256)) public balances;\r\n\r\n    function addToken(bytes32 ticker, address tokenAddress) external{\r\n        tokenMapping[ticker] = Token(ticker, tokenAddress);\r\n        tokenList.push(ticker);\r\n    }\r\n\r\n    function deposit(uint amount, bytes32 ticker) external{\r\n\r\n    }\r\n\r\n    function withdraw(uint amount, bytes32 ticker) external{\r\n        //check if the token actually exist before processing the withdraw process\r\n        //!= address(0), because is uninitialise token address (0x000000000000000), \r\n        require(tokenMapping[ticker].tokenAddress != address(0));        \r\n        \r\n        //use require to make sure sender have enough amount of token to proceed withdraw\r\n        //if insufficient, throw error message.  else proceed to the next step\r\n        require(balances[msg.sender][ticker] >= amount, \"Insufficient Balance\");\r\n\r\n\r\n\r\n        //.sub() is a Safe Math funrtion from openzepplin library (SafeMath.sol)\r\n        //use to prevent possible overflow and underflow from occuring.\r\n        balances[msg.sender][ticker] = balances[msg.sender][ticker].sub(amount);\r\n        //transfer token from DEx to owner\r\n        IERC20(tokenMapping[ticker].tokenAddress).transfer(msg.sender, amount);\r\n    }\r\n}",
  "sourcePath": "C:\\Users\\tombf\\Desktop\\Moralis\\Smart Contract 201\\dex\\contracts\\wallet.sol",
  "compiler": {
    "name": "solc",
    "version": "0.8.17+commit.8df45f5f.Emscripten.clang"
  },
  "schemaVersion": "3.4.11",
  "updatedAt": "2023-01-23T12:59:36.265Z",
  "devdoc": {
    "kind": "dev",
    "methods": {},
    "version": 1
  },
  "userdoc": {
    "kind": "user",
    "methods": {},
    "version": 1
  }
}